:100000000C94EB040C9408050C9408050C9408055A
:100010000C9408050C9408050C9408050C9408052C
:100020000C9408050C9408050C9451190C948D1827
:100030000C9475250C9408050C9408050C9408057F
:100040000C9408050C9408050C9408050C940805FC
:100050000C9408050C9403250C9408050C940805D1
:100060000C9408050C9408050C9408050C940805DC
:100070000C9408050C9408050C9408050C940805CC
:100080000C9408050C9408050C9408050C940805BC
:100090000C9408050C9408050C9408050C940805AC
:1000A0000C9408050C9408050C940805CC08D60897
:1000B000DB08E008E508EA08EF08F408F908FE089C
:1000C000030996060A090D0910091309160998066D
:1000D00019091E09B909B909F309F3093E0A5A0AAF
:1000E000220C820C9C0A7A0B8B0B8B0B7B0D7E0DEA
:1000F000810D840D870D8A0D8D0D99129C129F1212
:10010000A212A712AE12AC12D016F7166518F71687
:1001100065183F17621765181E18321838283828D6
:100120004B284B2841284B284B284B283828382867
:1001300046284B284B2846282B022B002A00390042
:10014000065D00003A00140004421D00055DE20057
:100150003B001A0016001B00035D29613C000800EB
:1001600007000600E3022C623D0015000943190058
:10017000E300CA5C3E0017000A0005000000085DAD
:100180003F000100000031000000C95C40002E006B
:100190000000350000000B5D41001C000B00110049
:1001A0000000C35C420018000D441000AA00C25CAD
:1001B00043000C000E003600A90028724400120013
:1001C0000F003700A8002B714500130033413800A1
:1001D000BE00E7000553E60034002D00BD0000001E
:1001E000010001004C0001000100000001001E029E
:1001F0002F004A000100010001001F023000010031
:1002000001000100010020022F02E20901000100AB
:100210000100210230024D000100C65C0100010016
:10022000010001000000005C01000100000001006D
:100230000000C55C01000100000001000000010099
:1002400001000100500001000000010001004E000B
:10025000510001000100010001004B0052000100AB
:1002600001000100010001004F0001000100010038
:100270000100010001000100010001000100010076
:100280000100010001000000010001000100010067
:100290000100000001000100010001000100010057
:1002A00001003502350001000100010001003102AA
:1002B0003100010001000100010001002E00210AAF
:1002C0000100010001000100010001000000010027
:1002D0000100010000000100000001000100010018
:1002E0000000010000000C5D0100010001000100A0
:1002F00000000D5D0100220226020100AC000A5D33
:100300000100230227020100AB00010001002402CA
:1003100001000100AE0001000100550001000100D4
:1003200001000100010001000100010001000000C6
:10033000010001000100530001000000010026023D
:100340003700010001000100010027022E02010018
:100350000100010001002D022D000100010001003B
:100360000100010001000100010001000100010085
:100370000100010000000100010001000000010077
:100380000000010001000100000001000000010068
:100390000100010001000100000001000100240033
:1003A00021001E00010001000100250022001F00A5
:1003B00001000100010026002300200001000100CF
:1003C00001002502270038000100010001000100A2
:1003D00028000100010000000100010001000100EF
:1003E0000100000001000100010001000100010006
:1003F00001000100F20001000100F5000100F00021
:10040000F10001000100F40001000100F30001000F
:1004100001000100010001000100010000000100D5
:1004200001000100000001000000010001000100C6
:1004300000000100000001000100010001000100B6
:1004400000000100010001000100010001000100A5
:1004500001000100FD0001000100FA00010001009F
:10046000FE0001000100F90001000100FF00010091
:100470000100010001000100010001000100000075
:10048000290001000100E100E00000001E00010061
:1004900004000100360010001F00010001000100EF
:1004A00037001100200001000100010038002C007D
:1004B00021000100090001003500010022000100B7
:1004C000010001000000010023001C0000000B00DF
:1004D0000000010001000100000001000000010017
:1004E00023000100010001000000010024000100C0
:1004F0000D000100010001002500010001000100C4
:1005000001002800260001000100010001002B006D
:10051000270001003300010001000100010001007B
:100520000100E500010000000001010101010101DD
:100530000101020202020202020202030303030398
:100540000303030404040404040405050505050667
:100550000606060607070707070808080809090925
:10056000090A0A0A0B0B0B0C0C0C0D0D0D0E0E0ECE
:100570000F0F0F101011111112121313141415155F
:1005800016161717181819191A1A1B1B1C1D1D1ED1
:100590001E1F202021222223242425262627282925
:1005A000292A2B2C2D2D2E2F303132323334353653
:1005B0003738393A3B3C3D3E3F4041424344454653
:1005C0004748494A4C4D4E4F50515354555658592F
:1005D0005A5B5D5E5F616264656668696B6C6D6FD6
:1005E0007072737577787A7B7D7E80828385878849
:1005F0008A8C8E8F91939596989A9C9EA0A2A3A583
:10060000A7A9ABADAFB1B3B5B7BABCBEC0C2C4C683
:10061000C9CBCDCFD1D4D6D8DBDDDFE2E4E7E9EB3F
:10062000EEF0F3F5F8FAFDFF0A0000000000030603
:10063000B200080001000000A8000800020002004B
:10064000A0001400030057494E555342000000001B
:100650000000000000008400040007002A0044009D
:100660006500760069006300650049006E00740053
:100670006500720066006100630065004700550078
:10068000490044007300000050007B003900440022
:100690004200370046003100460044002D0037007C
:1006A0004500370041002D00340030003000380094
:1006B0002D0039003300360042002D003600420084
:1006C0004100360043003100390041003300300062
:1006D000380063007D00000000001B0301636F6EA3
:1006E0006669677572652E6572676F646F782D65D0
:1006F0007A2E636F6D0005010902A10185020901CF
:10070000A1000509190129051500250195057501A7
:1007100081029501750381010501093009311581B7
:10072000257F95027508810609381581257F950179
:1007300075088106050C0A38021581257F9501751B
:10074000088106C0C005010980A10185031A810046
:100750002A8300160100260300950175108100C050
:10076000050C0901A10185041A01002A9C02160149
:1007700000269C02950175108100C005010906A1A3
:10078000018505050719E029E7150025019508757C
:100790000181020507190029EF1500250195F07563
:1007A0000181020508190129059505750191029538
:1007B0000175039101C005010906A101050719E0B2
:1007C00029E7150025019508750181029501750835
:1007D00081010507190029FF150026FF0095067500
:1007E00008810005081901290595057501910295F3
:1007F0000175039101C009025200030100A0FA092A
:10080000040000010301010009211101000122403F
:10081000000705810308000A090401000103000024
:100820000009211101000122C000070582032000F8
:100830000A0904020002FF000000070583034000CC
:10084000050705040340000512011002000000081E
:10085000EDFE071301000102030104033000000054
:1008600016034500720067006F0064006F00780097
:10087000200045005A00000008035A0053004100C0
:10088000000004030904050F3900021C100500DFF5
:1008900060DDD88945C74C9CD2659D9E648A9F00C7
:1008A000000306B20045001810050038B60834A948
:1008B00009A0478BFDA0768815B6650001420000AF
:1008C000047F3F1F643214643214783C1E1E140AE5
:1008D00005FFAA7F55402223252628292A2C2D2FC3
:1008E0003032333536383A3B3D3E40424345474946
:1008F0004A4C4E5051535557595A5C5E606264667B
:1009000068696B6D6F71737577797B7D7F81838586
:1009100087898A8C8E90929496989A9C9E9FA1A388
:10092000A5A7A8AAACAEAFB1B3B4B6B8B9BBBCBEAC
:10093000BFC1C2C3C5C6C7C9CACBCCCDCED0D1D228
:10094000D2D3D4D5D6D7D7D8D9D9DADADBDBDBDC2A
:10095000DCDCDCDCDDDDDDDDDCDCDCDCDCDBDBDBD6
:10096000DADAD9D9D8D7D7D6D5D4D3D2D2D1D0CE36
:10097000CDCCCBCAC9C7C6C5C3C2C1BFBEBCBBB93B
:10098000B8B6B4B3B1AFAEACAAA8A7A5A3A19F9EB9
:100990009C9A98969492908E8C8A89878583817F81
:1009A0007D7B79777573716F6D6B69686664626062
:1009B0005E5C5A5957555351504E4C4A494745432E
:1009C00042403E3D3B3A3836353332302F2D2C2ACB
:1009D00029282625232211241FBECFEFDAE0DEBF0F
:1009E000CDBF12E0A0E0B1E0E0E4FDE502C005907B
:1009F0000D92AE32B107D9F726E0AEE2B2E001C007
:100A00001D92AE3BB207E1F70E94571B0C949E2E3D
:100A10000C9400004F925F926F927F929F92AF92E0
:100A2000BF92CF92DF92EF92FF920F931F93CF93DB
:100A3000DF93CDB7DEB72A970FB6F894DEBF0FBEAF
:100A4000CDBFFC010081F18083819481892B39F035
:100A50001FEFF11206C091E00F3F19F403C091E0BF
:100A600001C090E090FD6EC76F0185E0DE01169633
:100A700001900D928A95E1F7F60122818E819F8186
:100A8000222349F00E941C27182F682F8E819F81F6
:100A90000E94962703C00E946927182F24E5129F01
:100AA000F001112436E0F39EE00DF11D1124E00F5A
:100AB000F11DEE0FFF1FE85CFE4F05911491809130
:100AC0002E05811143C0F601828181118DC0043051
:100AD000FDE51F0719F188F403303DE5130709F020
:100AE00083C00E94E42A0E9421288EE292E0909323
:100AF0006E0580936D0581E01CC006308DE51807FA
:100B0000D9F007309DE5190709F06EC06091060124
:100B1000709107014FEF88E295E015C00E94E42A2A
:100B20000E94212888E295E090936E0580936D05E0
:100B300082E080932E0506C760910801709109013B
:100B400041E08EE292E00E94EB21FCC60530EDE52B
:100B50001E0799F5F6019281992309F4F3C68130B5
:100B600039F0823039F580916D0590916E051AC08B
:100B700080916D0590916E05F2E08E329F0739F0FD
:100B8000FC0136972281222311F0CF01F5CF9093FB
:100B90000901809308010EC0FC01369622812223B0
:100BA00029F0CF0105E088329007B1F79093070153
:100BB0008093060110922E05C5C6813059F082300F
:100BC00099F4609108017091090196014FEF88E254
:100BD00095E008C06091060170910701960141E01F
:100BE0008EE292E00E9488158091C505882309F461
:100BF000A3C08091C60580FF15C01982F6018281CD
:100C0000882311F081E101C082E18A83F6018081AD
:100C10008B8381818C838EEF8D8365E0CE0101967D
:100C20000E94B923F60182810930FDE51F0709F012
:100C300040C0882309F483C09091750581E0890F35
:100C40008770987F853020F4892B8093750502C0CA
:100C5000909375058091750587702FEF829FC00175
:100C60001124959587959595879599279093890057
:100C70008093880090938B0080938A0090938D00DE
:100C800080938C00409175055091760560917705B1
:100C9000709178058FE090E00E94062D6091C1056B
:100CA0007091C2058091C3059091C4050E947E1287
:100CB00046C00B303DE5130779F028F40A30EDE526
:100CC0001E0771F03CC00C30FDE51F0799F00D3098
:100CD0002DE51207E1F033C0882309F433C626C09E
:100CE000882309F42FC690912F0581E089278093EE
:100CF0002F0528C6882309F425C60E94700E81E0BE
:100D00000E946D0E21E040E86FEF86E50CC088235D
:100D100009F418C60E94700E81E00E946D0E21E059
:100D20004FEF6FEF8BE10E9490220CC681E001C073
:100D300088E10E946D0E06C680E090E05CCFF6016F
:100D40008281882319F1033E3CE51307C1F050F47A
:100D5000013E9CE5190781F0023EECE51E07B1F467
:100D600081E010C0043EFCE51F0759F0053E2CE56C
:100D7000120761F484E006C01092710505C082E09C
:100D800001C083E0809371050E944A0F17FF71C074
:100D9000F6018281882309F46CC0809175068093E6
:100DA00030051092750680917105813071F048F020
:100DB0008230C1F08430E1F486EE0E94232B88E17A
:100DC00015C082EE0E949D2B13C083E00E94042B6D
:100DD00088E10E949D2B88E10E94362B83E00E94CF
:100DE000F92A06C082EE0E949D2B87E50E94232BE4
:100DF0008FE39CE90197F1F700C000005801E894E7
:100E0000B7F82CE0E22EF12CC5010E2C02C096950D
:100E100087950A94E2F7282F2F7041F0822F90E0F7
:100E20002A3010F44D9604C0069702C087E290E085
:100E30000E94232B94E0E91AF108ECEFEE16EFEF95
:100E4000FE0611F780917105813039F040F0823053
:100E500031F0843051F488E206C08CE204C082EEA6
:100E60000E94362B02C00E94232B80913005809374
:100E70007506033FFCE51F0729F180F4083D3CE5BA
:100E80001307C9F0093D8CE5180741F1073D9CE5C2
:100E9000190739F526E241EE61EE10C0053FECE599
:100EA0001E07C1F098F0063F2CE51207D1F427E2A7
:100EB00045EE66EE03C027E245EE65EEC6010E94F0
:100EC0002C2340C526E241EE60EEF8CF27E245EE46
:100ED00064EEF4CF26E241EE62EEF0CF28E241E08C
:100EE000ECCFF6019281992309F439C110923105B2
:100EF0000230FCE51F0708F41CC106312CE512077F
:100F000038F098012A5F3C452730310508F011C1BF
:100F10000E94FB2590938805809387050F303CE560
:100F2000130709F4CFC008F042C008309CE5190748
:100F300009F4A8C0F0F40430FCE51F0709F490C0E0
:100F400068F402303CE5130709F486C003301C4501
:100F500009F0DFC0809187058260D9C006309CE52A
:100F6000190709F487C008F089C080918705886057
:100F7000CEC00B30FCE51F0709F495C068F40930BA
:100F80003CE5130709F482C00A301C4509F0C1C0D2
:100F900080918705886080C00D309CE5190709F4B1
:100FA00086C008F087C0809187058D7FB0C00A3F5A
:100FB000FCE51F0709F457C050F502313CE5130763
:100FC00009F488C068F400319CE5190709F47EC073
:100FD00001311C4509F09DC0809187058F7B97C02A
:100FE0000431FCE51F0709F487C008F479C0053116
:100FF0001C4509F08EC08091870582FB222720F9CD
:1010000091E0922790FB82F990FB83F980C00D3F1D
:101010008CE5180709F452C058F40B3FECE51E07A5
:1010200029F10C3F1C4509F074C08091880560C00F
:101030000F3F2CE5120709F458C080F101151D453A
:1010400009F067C080918805982F909591708E7FE8
:10105000892B90FB81F94DC080918705816057C035
:101060008091870519C0809188051BC080918805F3
:1010700082603FC080918705806149C0809187056B
:10108000806245C080918705806441C00E94E42A47
:101090008091870580683BC0846039C08091880555
:1010A0008260816026C0809187058E7F30C08091EC
:1010B000870519C080918705877F29C080918805A1
:1010C0008D7F17C0809187058F7E21C08091870515
:1010D0008F7D1DC00E94E42A809187058F7717C0FD
:1010E00080918705877F8B7F12C0809188058D7FD7
:1010F0008E7F809388050DC00E94E42A8091870529
:1011000087FB222720F991E0922790FB87F98093B3
:101110008705609187051091880584E090E00E9422
:10112000F42C612F81E290E00E94F42C0E94E42ACA
:1011300009C4809175060631FCE51F0709F58A7A16
:1011400091E009F490E090933205882311F065E373
:1011500001C069E28BE196E00E94C6250EC006310F
:101160001C4509F0C2C080913205882309F4E8C308
:1011700065E38BE196E00E949E250E94D626E2C39D
:101180008272F801E25CFC45E431F10508F058C0D8
:10119000EA5AFF4F0C945E2D8091A10580FF03C099
:1011A0000E946612CFC30E94700ECCC348E75EE077
:1011B00061E87EE02CC041E85EE068E77EE027C0A1
:1011C0004BE25DE064E37DE022C044E35DE06BE27E
:1011D0007DE01DC043E15DE06FE17DE018C04FE1BF
:1011E0005DE063E17DE013C04BEF5CE067E07DE034
:1011F0000EC047E05DE06BEF7CE009C045E05EE0DB
:1012000066E17EE004C046E15EE065E07EE00E94CB
:10121000372298C365E082E00EC068E086E00BC02C
:101220006EE089E008C064E18FE005C067E185E118
:1012300002C062E289E10E94262284C383E279CD62
:101240000E3DECE51E0709F446C00830FDE51F071A
:1012500009F444C001151C4509F047C00E94E42A66
:101260003FEF84E39CE0315080409040E1F700C0C4
:101270000000F89481E08093E00080E28093D80041
:101280001092C900EFE1FEE43197F1F700C00000D1
:101290001DBA109268001CBC10BE1FBA10927A00D2
:1012A00010926E0010926F001092710010927200F6
:1012B0001092C9001092BC0014B817B81AB81DB823
:1012C00010BA1092BC0015B818B81BB81EB811BAE5
:1012D0000C94003F37C30E940C2634C39091C7057D
:1012E00081E089278093C7052DC3F6010081118114
:1012F000992349F0C8010E941C27F82E682FC801C5
:101300000E94962704C0C8010E946927F82EB801E0
:101310008F2D0E94500F8C01B82EF601E580E294CB
:101320009FE0E922F280F11010927406809172061B
:10133000877079F0FF2069F080E2800F883048F0F4
:1013400082E00E94E727809172068770AA24A39406
:101350008111A12C912E92948FE09822892D90E0FA
:101360008C30910508F0CEC2FC01E659FF4F0C9479
:101370005E2D812F807F1F70882311F01295107FC2
:10138000FF20B9F0112309F447C280E2800F8830B2
:1013900010F0B11006C080917506182B10937506D9
:1013A00005C080917406182B109374060E94D626EF
:1013B00033C2802F0E94362B112309F4A3C2005E92
:1013C0001095083010F0B11006C0809175061823F2
:1013D0001093750605C08091740618231093740647
:1013E0000E94D6268FC2812F807F1F70803211F01D
:1013F0001295107FBB2021F0F1E0BF16E1F028C06C
:10140000FF2081F080917606EE2051F001E0E0129D
:1014100007C0182B181709F475C21093760672C20C
:10142000812B10C0EE2021F021E0E21609F46AC2FF
:101430000E94D0261FC0FF2041F031E03E1508F485
:1014400061C2812F0E94192B5DC2E1105BC212C0E4
:10145000FF2019F0EE20A9F3DFC1EE2059F0093387
:1014600009F0ECC18FEF97EEE3E081509040E0404F
:10147000E1F7E2C1812F0E940E2B44C2812F869595
:101480008695837019F0813059F03CC2FF2019F025
:10149000C801937002C080E090E00E94C92138C268
:1014A000FF2019F0C801937002C080E090E00E9414
:1014B000B3212EC2FF20F9F0053F51F0063F71F035
:1014C000043FA9F4809133059091340581600BC0ED
:1014D0008091330590913405826005C08091330579
:1014E0009091340584609093340580933305802F68
:1014F0000E949B241EC0053F51F0063F71F0043F3F
:10150000A9F480913305909134058E7F0BC08091B2
:101510003305909134058D7F05C0809133059091FE
:1015200034058B7F9093340580933305802F0E9480
:10153000D1230E945F25ECC1812F837009F069C01F
:10154000F110E4C1902F929596959770990F990F8D
:10155000802F8F70482E512C612C712C092E04C0C5
:10156000440C551C661C771C0A94D2F704FF12C069
:101570004FE050E060E070E004C0440F551F661F6C
:10158000771F9A95D2F7DB01CA0180959095A095B7
:10159000B09503C080E090E0DC0116951695412FD0
:1015A0004370423019F1C8F4009177061091780623
:1015B0002091790630917A06413059F08429952995
:1015C000A629B729BC01CD0160237123822393236F
:1015D0000AC0402A512A622A732ABC01CD0164291B
:1015E0007529862997290E94A72890C184299529C1
:1015F000A629B729009177061091780620917906DF
:1016000030917A06BC01CD0160277127822793278C
:10161000EACFFF2019F0812F817001C086958823C1
:1016200009F474C1902F929596959770990F990F20
:10163000802F8F70482E512C612C712C092E04C0E4
:10164000440C551C661C771C0A94D2F704FF12C088
:101650004FE050E060E070E004C0440F551F661F8B
:10166000771F9A95D2F7DB01CA0180959095A095D6
:10167000B09503C080E090E0DC0116951695412FEF
:1016800043704230D9F068F50091C1051091C20550
:101690002091C3053091C405413059F08429952922
:1016A000A629B729BC01CD0160237123822393238E
:1016B0001EC0402A512A622A732A13C08429952900
:1016C000A629B7290091C1051091C2052091C30533
:1016D0003091C405BC01CD01602771278227932773
:1016E00006C0BC01CD0164297529862997290E946D
:1016F0006A280CC11F70FF2039F0812F0E9400283A
:10170000802F0E94192B02C1802F0E940E2B812F47
:101710000E94C227FBC0802FF2EFBF1609F43EC023
:10172000FB1538F020EFB21661F031EFB31689F1F6
:101730006EC093EFB916C9F1E4EFBE1609F44BC0C1
:1017400066C0FF2009F1E110DDC01F7181E090E06B
:10175000A0E0B0E0AC01BD0104C0440F551F661FFE
:10176000771F1A95D2F78091C1059091C205A0917B
:10177000C305B091C4058A019B01082719272A27B0
:101780003B27C901B80121C021E02E1508F4BAC0D9
:10179000DCCFFF2029F0812F8F712BC0FF20D9F3E0
:1017A000812F8F710E94C227ADC0FF2089F01F7169
:1017B00081E090E0A0E0B0E0BC01CD0104C0660F84
:1017C000771F881F991F1A95D2F70E946A289AC01E
:1017D0000E94212897C0FF2079F01F71812F0E945D
:1017E000002838E0139FC0011124836080937206A3
:1017F000812F0E94002886C081E00E94E72781E0B7
:101800008E1508F07FC082E00E94E7277BC0FF2092
:1018100039F0EE2009F4BFCF802F0E949D2B72C0BB
:10182000EE2009F4BDCF893349F49FEFE7EEF3E0F2
:101830009150E040F040E1F700C00000802F0E948E
:10184000362B60C012EFB116E1F01B1538F020EF17
:10185000B21669F031EFB31611F12BC084EFB81650
:10186000C9F0B81660F095EFB91671F022C0FF20EC
:1018700009F44EC09091810681E0892708C081E07B
:10188000F826F092810644C0F11042C081E08093B6
:1018900081063EC0F1103CC01092810639C0FF2085
:1018A00029F080918006882329F329C0EE2011F3C6
:1018B0002FC080918006EE20C1F0882341F09091E6
:1018C000810681E089278093810610928006802F0F
:1018D000FF2019F00E949D2B1BC00E94362B86E032
:1018E000F60111928A95E9F713C0882389F0F11067
:1018F0000FC09091810681E0892780938106109224
:10190000800606C088EF890D843010F40E94DF2124
:10191000AA20C1F08091720680FD14C0F6011282E7
:101920008595859585950E940028C6010E940A0527
:10193000809172068595859585950E94C22702C083
:1019400069E217CC2A960FB6F894DEBF0FBECDBF62
:10195000DF91CF911F910F91FF90EF90DF90CF908B
:10196000BF90AF909F907F906F905F904F90089541
:101970009091870592FF0DC0282F2871283019F407
:10198000877F846006C0282F2471243011F48B7F58
:10199000886093FF0DC0282F2871283119F4877EA5
:1019A000846106C0282F2471243111F48B7E886154
:1019B0002091880520FF0DC0382F3871383019F478
:1019C000877F816006C0382F3171313011F48E7FEE
:1019D000886021FF0DC0282F2871283119F4877ED7
:1019E000816106C0282F2171213111F48E7E88611A
:1019F00094FD877E0895E1EAF5E043812CE0421BE7
:101A000008F440E021E0628181810C949022E1EAB7
:101A1000F5E043812CE0420F08F44FEF21E06281B2
:101A200081810C949022E1EAF5E062812FEF621B44
:101A300008F460E021E0438181810C949022E1EA86
:101A4000F5E062812FEF620F08F46FEF21E0438130
:101A500081810C949022E1EAF5E0818121E04381CB
:101A600062818C500C949022E1EAF5E0818121E0C2
:101A700043816281845F0C949022CF93E82F87305A
:101A800080F580910B0190910C01892B09F047C0E2
:101A9000CE2F64E670E080E40E94302C90930C011D
:101AA00080930B01892BD1F464E670E082E10E94FF
:101AB000872C90930C0180930B01892B79F481E0A2
:101AC00090E001C0880FCA95EAF764E670E080955F
:101AD0000E94872C90930C0180930B01CF910C9462
:101AE000DC2C90E0FC013797E730F105C0F4EA58B0
:101AF000FF4F0C945E2D209A289811C0219A2998A6
:101B00000EC0229A2A980BC0239A2B9808C0529A8A
:101B10005A9805C0539A5B9802C03E9A4698CF9156
:101B20000895CF93873008F03FC080910B019091CA
:101B30000C01892B09F041C064E670E080E40E944A
:101B4000302C90930C0180930B01892B11F0C0E095
:101B500027C064E670E083E10E94872C90930C011B
:101B600080930B01892B99F764E670E081E40E9471
:101B7000302C90930C0180930B01892B41F784E664
:101B800090E00E94B72C97FF05C090930C018093C2
:101B90000B01DDCFC82FC09510920C0110920B01E4
:101BA0000E94DC2C8C2F0AC09FB18FB1807F86955C
:101BB00086959370892B809501C080E0CF91089520
:101BC0008091A105282F269530E02115310519F4C3
:101BD0008170826005C02532310524F081708864EF
:101BE0008093A1050895CF92DF92EF92FF926B014F
:101BF0007C010E94E00DB701A60188E090E0FF9013
:101C0000EF90DF90CF900C94062D8091A50588234E
:101C100019F081508093A5056091A1057091A205EE
:101C20008091A3059091A4050C94F30D8091A505D6
:101C3000833018F48F5F8093A5056091A1057091A2
:101C4000A2058091A3059091A4050C94F30D9091A9
:101C5000A10590FF36C09170811102C0926006C04C
:101C6000853210F0986402C0880F982B9093A105DC
:101C7000662351F06091A1057091A2058091A305A2
:101C80009091A4050E94F30D6091A105669570E006
:101C90004BE050E087E191E00E94912E892B19F0F2
:101CA0001092A70502C00E94A02381E080939E05A8
:101CB00020E04091A4056091A3058091A2050C94B9
:101CC0009022089560E00C94270EE1EAF5E080810F
:101CD0008160808386950C94620E61E00C94270EDF
:101CE000E1EAF5E080818160808386950C946D0E39
:101CF0008091A1058695815009F484E261E00C94FD
:101D0000270E8091A10586958F5F853208F081E0CE
:101D100061E00C94270EE1EAF5E083E08083118214
:101D20008FEF8283838314826081718182819381AA
:101D30000C94F30DBF92CF92DF92EF92FF920F932C
:101D40001F93CF93DF93E82EF62EE901E42FF0E006
:101D5000611106C0E85DFA4F8491B82EE82F71C07A
:101D6000262F30E0E85DFA4FE491FE2FCE2ED12CE5
:101D700046E0849FC00111240FEF10E0B8010E94DB
:101D8000362D4BEA4603C001479F900D11248E0D5E
:101D9000911D8E0D911D982F990F890FD801A21BAF
:101DA000B30BAC9DA001AD9D500DBC9D500D1124F9
:101DB000B52EF89ED0011124AB2FBB277801EA1A6B
:101DC000FB0AEC9CD001ED9CB00DFC9CB00D1124E5
:101DD0007801E81AF108E29EC001E39E900DF29EA0
:101DE000900D1124892F9927081B190B0C9D900128
:101DF0000D9D300D1C9D300D1124832F6230710517
:101E000091F048F461157105E1F061307105B9F4A4
:101E10008E2FEB2F16C06430710569F040F06630EC
:101E2000710579F00CC08E2FE52FB32E0AC0E52F77
:101E3000BF2E8B2F06C0852FBE2EE32F02C0852F0D
:101E4000BB2EE9838883BA821B82DF91CF911F91D9
:101E50000F91FF90EF90DF90CF90BF900895CF93B8
:101E6000DF9300D000D0CDB7DEB79091A10590FFF1
:101E70000AC09E012F5F3F4F0E949A0E4B816981DD
:101E80008A810E943D220F900F900F900F90DF915A
:101E9000CF910895609171058CE090E00C94F42C42
:101EA000CF93DF9324E5829FC0011124FC0146E01B
:101EB000749FE00DF11D1124E60FF11DEE0FFF1FC1
:101EC000E85CFE4FC591D491CE01C238D10569F1CD
:101ED000B0F4C133D10509F475C048F4C932D10555
:101EE00009F469C0CA32D10509F473C085C0C5338D
:101EF000D10509F459C0C933D105B9F07DC0C33E3D
:101F0000D10571F138F4C03ED105B1F0C23ED10522
:101F100011F172C0C63ED105B9F1C73ED105C9F174
:101F2000C43ED10509F068C024C02091870520FD7A
:101F30005DC021FD5BC060C02091870520FD50C0C1
:101F40002091880520FF57C18091870584FD51C1EC
:101F500083EE90E050C12091870522FF4CC1F4CF61
:101F60008091870582FD3FC08091880580FD3EC03D
:101F7000EBCF2091880521FF3EC18091870584FD2C
:101F800038C187EE90E037C12091870523FF33C128
:101F9000F4CF8091870583FD2CC08091880581FF57
:101FA000ECCF84EE90E027C12091870525FF23C167
:101FB00089E290E020C12091870525FF1CC185E3BF
:101FC00090E019C12091870526FF15C18AE290E0B3
:101FD00012C12091870526FF0EC181E390E00BC15D
:101FE00089E390E008C182EE90E005C180EE90E0C8
:101FF00002C186EE90E0FFC0C11552E5D50708F09A
:1020000075C0C11521E5D20728F09C2F8827816F64
:10201000906AF1C0C83ED10570F5C03ED10508F008
:10202000EAC0C83AD105B8F4C53AD10550F08C2FB2
:10203000855AC82FD0E0C350DE4F888190E090646D
:10204000DAC0C130D10509F4D6C008F4D2C0249753
:1020500008F4CFC0D0C0CF3BD10508F0CAC08C2F48
:10206000885AC82FD0E0CC0FDD1FC050DE4F8881CA
:1020700099819464C0C0C11540E2D40760F4C115D1
:1020800051E0D50708F0B7C0C03FD10508F4B1C092
:10209000CE019065B0C0C11580E4D80708F4A9C08E
:1020A000C11520E5D20720F4CE019F70906AA3C02D
:1020B000CE01F4E096958795FA95E1F7282F2370E5
:1020C0003C2F337081E090E002C0880F991F3A9551
:1020D000E2F79C68922B2C2F2F702695269550E2C4
:1020E000259F90011124822B932B85C0C11546E5B5
:1020F000D40708F03FC0C11555E5D50748F08C2F2F
:102100000E94B80C8F7190E0982F8827906273C05E
:10211000C11584E5D80728F09C2F8827846F906A22
:102120006AC09E01237033279C2F96959695C11502
:10213000D34580F441E050E002C0440F551F2A957A
:10214000E2F780E2989F90011124CA01822B932B21
:102150009C6851C041E050E002C0440F551F2A95D1
:10216000E2F780E2989F90011124CA01822B932B01
:102170009A6841C0C1155AE5D50778F5C11589E5BA
:10218000D80710F18C2F8F700E94B80C9E0194E03C
:10219000369527959A95E1F72F7030E0322F222758
:1021A0003069A901482B0EC090568115904208F560
:1021B0008D2F8F710E94B80C9E01332730628F7172
:1021C000A901582BCA0117C0C11528E5D20788F00C
:1021D0009C2F8827806F906A0EC0C1154BE5D407ED
:1021E00040F0CE01C1155CE5D507F0F69927906661
:1021F00002C080E090E0DF91CF91089580E290E00E
:1022000090930C0180930B0180913B0581110EC0CE
:102210000E942A2C81E080933B052FEF83ED90E311
:10222000215080409040E1F700C0000064E670E07B
:1022300080E40E94302C90930C0180930B01892B39
:1022400009F04EC064E670E080E00E94872C909315
:102250000C0180930B01892B09F042C064E670E009
:1022600080E00E94872C90930C0180930B01892BB6
:10227000B9F564E670E08FE30E94872C90930C011F
:1022800080930B01892B61F50E94DC2C64E670E0E1
:1022900080E40E94302C90930C0180930B01892BD9
:1022A000F9F464E670E08CE00E94872C90930C01B6
:1022B00080930B01892BA1F464E670E080E00E941A
:1022C000872C90930C0180930B01892B49F464E6D1
:1022D00070E08FE30E94872C90930C0180930B0198
:1022E0000E94DC2C80910B010895CF93DF935698C8
:1022F0005E9825982D9826982E9827982F98C8E8AC
:10230000D0E08FEF90E099838883AAE8B0E011963F
:102310009C938E93ECE8F0E091838083259A2D9A2C
:102320002FEF80E792E0215080409040E1F700C01D
:102330000000269A2E9A2FEF80E792E021508040ED
:102340009040E1F700C00000279A2F9A2FEF80E716
:1023500092E0215080409040E1F700C000002598B5
:102360002D982FEF80E792E0215080409040E1F7D8
:1023700000C0000026982E982FEF80E792E02150B1
:1023800080409040E1F700C0000027982F9880918E
:10239000750587702FEF829FC00111249595879551
:1023A0009595879599279983888311969C938E9309
:1023B0009183808356985E9825982D9826982E981C
:1023C00027982F98DF91CF910895EF92FF920F9366
:1023D0001F93CF93DF938091A10580FF08C00BEC82
:1023E00015E087E0E82E86E0F82EF8010CC0EBEC53
:1023F000F5E01182108212821382349686E0E73073
:10240000F807B9F7ECCF928120813181892F291704
:1024100008F4822F381708F4832F8383381B318305
:10242000281B2083981B92833496EE16FF0659F7DB
:102430000E942A2C64E670E084E80E94302CCBECE9
:10244000D5E064E670E088810E94872C64E670E045
:1024500089810E94872C64E670E08A810E94872C23
:1024600064E670E08B810E94872C2496EC16FD06B2
:1024700041F70E94DC2C579A8BB18F779BB1906803
:102480002FB7F894E016F10699F0F80131918F0119
:1024900048E09BB9000000C037FF8BB9330F000044
:1024A00000C000C000C08BB900C04A9591F7EACFC8
:1024B0002FBF8FE391E00197F1F700C00000DF919B
:1024C000CF911F910F91FF90EF900895E1EAF5E011
:1024D00080818E7F808360817181828193810E945F
:1024E000F30D1092A7052FEF80E792E02150804076
:1024F0009040E1F700C000000C94E511CF92DF920C
:10250000EF92FF926B017C010E94802656985E98A4
:1025100025982D9826982E9827982F98482F50E088
:10252000FA013197E730F105F0F4E358FF4F0C94CE
:102530005E2D259A2D9A36C0269A2E9A41C0279A4A
:102540002F9A4CC0259A2D9A269A2E9A55C0259AD4
:102550002D9A279A2F9A5EC0259A2D9A269A2E9AFE
:10256000279A2F9A67C0823059F130F4882361F09E
:10257000813009F05FC016C0843009F43DC070F1AD
:10258000853009F447C056C080912F05811175C070
:102590000E94650E81E00E94620E20E04FEF6FEF17
:1025A00085E745C080912F05811167C00E94650EA7
:1025B00081E00E94620E20E04FEF6FEF80E037C0B5
:1025C00080912F05811159C00E94650E81E00E9403
:1025D000620E20E04FEF6FEF86E529C080912F0556
:1025E00081114BC00E94650E81E00E94620E20E0C6
:1025F0004FEF6FEF8CEA1BC080912F0581113DC01A
:102600000E94650E81E00E94620E20E04FEF6FEFA6
:102610008BE20DC080912F0581112FC00E94650EA5
:1026200081E00E94620E20E04FEF6FEF8BEB0E9483
:10263000902223C080912F0581111FC088E090E077
:102640000E94E82C6093A1057093A2058093A305D6
:102650009093A40560FF0FC00E94700E8091A105A9
:1026600086950E946D0E21E04091A4056091A3051E
:102670008091A205DCCF0E946612C701B601FF90CF
:10268000EF90DF90CF90089584B1807F84B985B1B9
:10269000807F85B98AB1837F8AB98BB1837F8BB9FB
:1026A0003E984698089580B38C7080BB81B3836F49
:1026B00081BB0895BF92CF92DF92EF92FF920F936A
:1026C0001F93CF93DF9380910B0190910C01892B85
:1026D00091F080913A058F5F80933A0581110BC08C
:1026E0000E94FE1090E090930C0180930B01892BC7
:1026F00011F40E94751199E7E92E95E0F92E8701F2
:10270000C0E0B12C87E0C82ECC0E8C2F0E943D0D6E
:102710008C2D0E943D0D8C2F0E94910DF80190810F
:10272000891721F08083DD24D39401C0D12C8C2D16
:102730000E94910DF8019781891719F0878381E034
:1027400001C080E0D82ABD280E944413CF5F0F5FEC
:102750001F4FC730B9F60E9453256AEF70E00E9400
:10276000362D9C01682F809136058823E9F110925F
:102770003605E0916F05F0917005DF011E9690E03F
:102780007BEF0AEF10E080818B3FA9F0482F50E0EB
:10279000681728F06901C41AD50AA60106C0E80125
:1027A000C41BD50BAE01420F531F4E31510514F01F
:1027B000708301C091E03196EA17FB0721F79093EF
:1027C0003605B11002C0911111C010923505E0918B
:1027D0006F05F091700590913605ADE8B5E0AF0159
:1027E000425F5F4F80E00FC0B110EFCF80913505A1
:1027F0008111EBCF2091C705809138059091390563
:10280000211119C057C0E70129917E013C9132176F
:1028100041F030813B3F21F460832C9391E001C073
:1028200081E031961196E417F50769F79093360524
:1028300080933505DFCF892B31F425982D98269884
:102840002E9827982F98809138059091390591708E
:10285000892B79F480913705882319F026982E98D2
:1028600002C0269A2E9A9091370581E0892780939D
:10287000370580913805909139058130984780F06F
:102880001092C7056091C1057091C2058091C30582
:102890009091C4050E947E1210923905109238055D
:1028A0008091380590913905019690933905809370
:1028B000380510C0892B71F0109239051092380537
:1028C0006091C1057091C2058091C3059091C405C6
:1028D0000E947E128B2DDF91CF911F910F91FF905F
:1028E000EF90DF90CF90BF9008958091650587FFAE
:1028F00011C08091E80082FD05C0809163058111BF
:10290000F8CF11C08091E8008B770BC080916305F0
:10291000882349F08091E80080FFF8CF8091E8009B
:102920008E778093E8000895982F973068F59093FC
:10293000E900981739F07091EC002091ED0050916A
:10294000F00003C0242F762F50E021FD02C09F5FCE
:10295000ECCF3091EB003E7F3093EB003091ED00F7
:102960003D7F3093ED003091EB0031603093EB0010
:102970007093EC002093ED005093F0002091EE0056
:1029800027FDE5CF80E008958F708093E90081E016
:10299000089520916B0530916C052617370748F094
:1029A0006115710539F42091E8002E772093E80035
:1029B00001C0B901FC0120E06115710591F1809120
:1029C0006305882309F440C0853009F43FC0809135
:1029D000E80083FD3DC08091E80082FD2FC080911A
:1029E000E80080FFE9CF2091F3008091F20090E0B1
:1029F000922B6115710559F08830910540F42491AE
:102A00002093F1003196615071090196F2CF21E0D7
:102A1000089709F020E08091E8008E778093E80025
:102A2000CBCF2111CCCF0AC080916305882361F000
:102A3000853061F08091E80083FD0AC08091E80054
:102A400082FFF2CF80E0089582E0089583E0089548
:102A500081E0089520916B0530916C0526173707AA
:102A600048F06115710539F42091E8002E77209324
:102A7000E80001C0B901FC0120E06115710579F1A0
:102A8000809163058823F1F18530F1F18091E800B0
:102A900083FD3CC08091E80082FD2EC08091E8005B
:102AA00080FFEBCF2091F3008091F20090E0922B19
:102AB0006115710551F08830910538F4219120930A
:102AC000F100615071090196F3CF21E0089709F0F8
:102AD00020E08091E8008E778093E800CECF21112E
:102AE000CFCF0AC080916305882361F0853061F003
:102AF0008091E80083FD0AC08091E80082FFF2CF58
:102B000080E0089582E0089583E0089581E00895CB
:102B1000F9012281A0916D05B0916E05211103C0CC
:102B2000A817B907C9F086E04802A0011124CD0119
:102B3000841B950B6817790779F086E001900D9258
:102B40008A95E1F780916D0590916E05480F591FA8
:102B500050936E0540936D0508951F93CF93DF93B7
:102B6000CDB7DEB7AA970FB6F894DEBF0FBECDBFC4
:102B7000E5E6F5E08091F100819325E0ED36F2077E
:102B8000C9F7809166058930B9F150F4823009F4B3
:102B9000A5C0833009F45FC0813009F0EEC00CC0DD
:102BA0008B3009F470C008F488C0823409F4AEC0D8
:102BB000853409F4C5C0E1C080916505813A09F00A
:102BC000DCC08091E800877F8093E80080916905F0
:102BD00090916A05892B21F460E281E495E003C0BD
:102BE00060E080E090E070E00E942A158091E800AB
:102BF0008B778093E800C1C080916505813209F030
:102C0000BCC08091690590916A05029708F0B5C033
:102C10008091E800877F8093E8008091E80082FD42
:102C200005C0809163058111F8CFA7C02091F30002
:102C30008091F20090E0922B029729F48091F100AC
:102C40008B7F813021F48091F10080934005809149
:102C5000E8008B7758C080916505813A09F08DC0F6
:102C60008091690590916A05892B09F086C0809151
:102C7000E800877F8093E8008091E80080FFFCCF28
:102C800080910A013BC080916505813209F075C0D1
:102C90008091690590916A05892B09F06EC0809139
:102CA000E800877F8093E8000E9475148091670593
:102CB00080930A010E94E42A60C0809165058132F8
:102CC00009F05BC08091E800877F8093E8000E9454
:102CD00075148091680580933F054FC0809165050C
:102CE000813A09F04AC08091E800877F8093E8002C
:102CF0008091E80080FFFCCF80913F058093F10038
:102D00008091E8008E778093E8002FC08091650560
:102D1000803C99F58091690590916A05029741F58B
:102D20008091670590916805892B11F58091E800E5
:102D3000877F8093E8006BE170E08AED96E013C036
:102D400080916505803CC9F48091690590916A0580
:102D5000079771F48091E800877F8093E80062EB29
:102D600070E088E296E00E94C9140E94751405C0C4
:102D70008091EB0080628093EB008091E80083FFFC
:102D8000A4C18091650590916605492F50E04A30B5
:102D9000510508F09AC1FA01EC57FF4F0C945E2DD3
:102DA000803821F0823809F090C108C08091610517
:102DB00090916205992389F082600FC08091690526
:102DC0008F70873008F081C18093E9008091EB001B
:102DD00085FB882780F91092E9009091E800977FA1
:102DE0009093E8008093F1001092F10033C1282FF6
:102DF0002D7F09F06AC1882319F0823061F065C126
:102E000080916705813009F060C1933009F080E05E
:102E1000809362052EC08091670581112AC0809140
:102E200069058F702FEF280F263008F04EC1809370
:102E3000E9002091EB0020FF1CC0933021F4809129
:102E4000EB00806214C09091EB0090619093EB00D6
:102E500021E030E0A90102C0440F551F8A95E2F736
:102E60004093EA001092EA008091EB008860809322
:102E7000EB001092E9008091E800877FEEC081119D
:102E800024C1109167051F778091E3008078812B22
:102E90008093E3008091E800877F8093E8000E94A0
:102EA00075148091E80080FFFCCF8091E30080687A
:102EB0008093E300111102C082E001C083E080939F
:102EC000630503C18058823008F0FFC08091670518
:102ED000909168058C3D53E0950779F583E08A83EE
:102EE0008AE289834FB7F894DE01139620E03EE032
:102EF00051E2E32FF0E050935700E49120FF03C02C
:102F0000E295EF703F5FEF708E2F90E0EA3010F0A7
:102F1000C79601C0C0968D939D932F5F243149F7CA
:102F20004FBF8091E800877F8093E8006AE270E0FD
:102F3000CE0101960E942A157BC0409169055091EF
:102F40006A05292F33272330310511F168F4213028
:102F5000310509F4C9C02230310509F0B6C062E577
:102F600070E086EF97E05DC02132310509F43BC087
:102F70002232310509F444C02F30310509F0A5C0D3
:102F8000E8E8F8E0E4916E2F70E086E898E045C04C
:102F9000992781309105B9F070F082309105D9F010
:102FA000039709F092C0EAE5F8E0E4916E2F70E033
:102FB0008AE598E032C0E2E8F8E0E4916E2F70E034
:102FC00082E898E02AC0E8E7F8E0E4916E2F70E02C
:102FD00088E798E022C0E0E6F8E0E4916E2F70E028
:102FE00080E698E01AC04115510509F482C04130CD
:102FF000510509F06AC069E070E081E298E011C013
:103000004115510509F47AC04130510509F05DC000
:1030100060EC70E086EF96E004C06115710509F47C
:1030200054C02091E800277F2093E8000E94C91433
:103030008091E8008B778093E80047C0803809F0E2
:1030400044C08091E800877F8093E8008091640508
:103050008093F1008091E8008E778093E8000E94D1
:10306000751433C0811131C0809167059091680556
:103070009927029754F58091E800877F8093E800B4
:1030800010916705109364050E947514111106C014
:103090008091E30087FD02C081E001C084E080935D
:1030A000630542E061EC81E00E94941442E261EC2D
:1030B00082E00E94941442E361EC83E00E94941445
:1030C00042E360EC84E00E9494148091E80083FF66
:1030D0001AC08091E800877F8093E8008091EB0020
:1030E00080628093EB000FC062E170E088E498E0BA
:1030F00098CF69E070E088E098E093CF60E470E0FA
:1031000086EB97E08ECFAA960FB6F894DEBF0FBE7F
:10311000CDBFDF91CF911F9108951F920F920FB6EF
:103120000F9211242F933F934F935F936F937F934D
:103130008F939F93AF93BF93CF93DF93EF93FF93BF
:10314000C091E900CF708091EC00D82FD17080FD44
:10315000D0E81092E9008091F000877F8093F00022
:1031600078940E94AD151092E9008091F00088607B
:103170008093F000CD2BCF70C093E900FF91EF91C9
:10318000DF91CF91BF91AF919F918F917F916F917F
:103190005F914F913F912F910F900FBE0F901F9015
:1031A0001895E8EDF0E080818E7F80831092E20038
:1031B0001092DA001092E100A0EEB0E08C918160F4
:1031C0008C9380818F77808319BCA7EDB0E08C91C0
:1031D0008E7F8C9380818F7E808310923C05089532
:1031E000CF92DF92EF92FF920F931F93CF93DF93D3
:1031F000C8EDD0E088818F7E8883E7EDF0E08081A4
:103200008160808384E082BF81E080933C05888177
:103210008E7F888302EE10E0F80110821092DA00AF
:1032200081EEC82ED12CF601108288818F77888399
:1032300088818068888388818F7D888319BC1092FB
:10324000630510926405109262051092610590EE7C
:10325000E92EF12CF70180818B7F8083888181604A
:10326000888342E060E080E00E949414F60180814F
:103270008E7F8083F8018081816080838081886077
:103280008083F70180818E7F80838881806188833D
:10329000DF91CF911F910F91FF90EF90DF90CF9032
:1032A00008951F920F920FB60F9211242F933F9300
:1032B0004F935F936F937F938F939F93AF93BF933E
:1032C000EF93FF938091E10082FF09C08091E200BB
:1032D00082FF05C08091E1008B7F8093E1008091A7
:1032E000DA0080FF2AC08091D80080FF26C080913C
:1032F000DA008E7F8093DA008091D90080FF18C0B9
:1033000080E189BD82E189BD09B400FEFDCF81E085
:103310008093630580913C0581110FC00E94D118F4
:103320000E94F0188091E20084608093E20005C062
:1033300019BC1092630510923C058091E10080FF5A
:1033400017C08091E20080FF13C08091E2008E7F61
:103350008093E2008091E20080618093E20080919E
:10336000D80080628093D80019BC85E08093630503
:103370008091E10084FF3BC08091E20084FF37C070
:1033800080E189BD82E189BD09B400FEFDCF809155
:10339000D8008F7D8093D8008091E1008F7E80934C
:1033A000E1008091E2008F7E8093E2008091E20054
:1033B00081608093E20080916405882311F084E0AD
:1033C00007C08091E30087FD02C081E001C083E077
:1033D000809363050E94E42A0E94DF2110923E053B
:1033E00080913D0581110E94650E0E94A02380916D
:1033F000E10083FF27C08091E20083FF23C080911A
:10340000E100877F8093E10082E080936305109262
:1034100064058091E1008E7F8093E1008091E2005D
:103420008E7F8093E2008091E20080618093E200D1
:1034300042E060E080E00E9494148091F000886097
:103440008093F000FF91EF91BF91AF919F918F9189
:103450007F916F915F914F913F912F910F900FBE90
:103460000F901F9018952091E4003091E50095E6AB
:103470004091EC00842F817040FF23C08091E800D0
:1034800080FD1DC080916305882399F0853099F0F7
:103490008091EB0085FD11C04091E4005091E50062
:1034A0002417350729F3915011F09A01E1CF84E0F8
:1034B000089582E0089583E0089581E0089580E012
:1034C00008954091E80042FFDDCF0895EF92FF920A
:1034D0000F931F93CF93DF937C018B010E94331ACC
:1034E000811119C0E70101151105A1F08091E800D3
:1034F00085FD0AC08091E8008E778093E8000E94E5
:10350000331A882381F307C089918093F100015019
:103510001109E9CF80E0DF91CF911F910F91FF90CA
:10352000EF90089580916305843011F081E0089553
:1035300082E00895CF93DF9300D01F92CDB7DEB71E
:1035400090916305943019F589837B836A8382E0C7
:103550008093E9008FEF9091E800815095FD06C0BF
:1035600095ED9A95F1F700008111F5CF8091E80073
:1035700085FF0DC040E050E063E070E0CE010196B1
:103580000E94661A8091E8008E778093E8000F9081
:103590000F900F90DF91CF910895CF93DF93EC01BF
:1035A0000E94921A823011F0843031F4BE0184E01E
:1035B000DF91CF910C949A1ADF91CF910895BC01BD
:1035C0006058710983E00C949A1ACF93DF93EC0151
:1035D0000E94921A823011F08430F9F482E08093D4
:1035E000E9008FEF9091E800815095FD06C095EDC0
:1035F0009A95F1F700008111F5CF8091E80085FFE1
:103600000CC040E050E066E070E0CE010E94661A17
:103610008091E8008E778093E800DF91CF91089544
:10362000CF93DF93EC010E94921A823011F0843024
:10363000D9F580910A01882339F08091870587FFA9
:1036400003C060E282E002C068E081E08093E900AC
:103650008FEF9091E800815095FD06C095ED9A9509
:10366000F1F700008111F5CF8091E80085FF1CC0C3
:1036700080910A01811105C040E050E068E070E0EF
:1036800003C070E040E050E0CE010E94661A8091D5
:10369000E8008E778093E80080E2FE01A1E4B5E0C7
:1036A00001900D928A95E1F7DF91CF910895CF9324
:1036B000DF93CDB7DEB7C955D1090FB6F894DEBF99
:1036C0000FBECDBF84B7877F84BF0FB6F894A8958F
:1036D00080916000886180936000109260000FBE4E
:1036E00090E080E80FB6F8948093610090936100B9
:1036F0000FBE85B7806885BF85B7806885BF0E948B
:10370000D1180E94F0188091E20084608093E2005A
:103710007894809163058823A1F01091E9001F70CF
:103720009091EC00892F817090FD80E8182B109209
:10373000E9008091E80083FD0E94AD151F70109391
:10374000E90082E084BD93E095BD9AEF97BD809338
:103750006E000E94FE1090E090930C0180930B018C
:103760000E9444130E945313A9E7B5E0EDE8F5E089
:1037700011921D9225E0EB39F207D1F78EE090E02F
:103780000E94702D80936F0590937005FC010E963A
:103790002BEF21938E179F07E1F780E090E00E94C6
:1037A000EE2C8F3E9E4F11F00E940C268CE090E094
:1037B0000E94E02C90E0A0E0B0E08093710590932F
:1037C0007205A0937305B093740589EA8093800015
:1037D00089E08093810024982C983F988AB18F7C4F
:1037E0008AB96E98479A8BB180638BB9769A8FE0CD
:1037F00090E00E94E82C60937505709376058093A5
:1038000077059093780567704FEF649FB00111249E
:10381000759567957595679577277093890060937F
:10382000880070938B0060938A0070938D00609382
:103830008C000E94751180E090E00E94EE2C8F3E7B
:103840009E4F11F00E940C2682E090E00E94E02C36
:103850008093B2050E94FB2590938805809387058D
:1038600083E090E00E94E02C682F70E080E090E020
:103870000E94A72880918905811135C080E090E0E1
:103880000E94EE2C8F3E9E4F21F00E940C260E943B
:103890008B0E88E090E00E94E82C6093A105709365
:1038A000A2058093A3059093A4056E7F71F40E94F6
:1038B0008B0E88E090E00E94E82C6093A105709345
:1038C000A2058093A3059093A4050E94E00D109299
:1038D000A7058091A10580FF03C086950E94620E16
:1038E00081E0809389056091C1057091C205809146
:1038F000C3059091C4050E947E128DE091E09093E3
:103900008B0580938A05F1E4EF2EF12CEC0EFD1E61
:1039100022E0E20EF11CAFEBCA2EA8E0DA2E809175
:103920006305853009F069C080916305843009F42E
:1039300041C010928C0520E488E190E00FB6F89425
:10394000A895809360000FBE209360001092A70599
:1039500080913E05811117C081E080933E058091E2
:10396000A105982F917090933D058E7F8093A105BE
:103970003FEF40E782E0315040408040E1F700C037
:1039800000000E94E51183B7817F846083BF83B705
:10399000816083BF7894889583B78E7F83BF0FB68D
:1039A000F894A895809160008861809360001092DF
:1039B00060000FBE80916205882309F4B0CF0E9499
:1039C000FE1090E090930C0180930B010E94441331
:1039D0000E945313EDE8F5E0119295E0EB39F907F9
:1039E000D9F70E945A13EDE8F5E08191811141C2A7
:1039F00025E0EB39F207C9F792CF0E945A13E3EBA7
:103A0000F5E0ADE8B5E000E010E0302F2D919191A8
:103A10009227A1F180E0BB24B3944B2D492351F1AF
:103A200061968FAF619762963FAF62972B2181E0DD
:103A300009F480E063968FAF63970E9453258160FD
:103A4000782F65969FAF8EAF659761964FAD619762
:103A500062965FAD629763966FAD639765968FAD23
:103A600065970E94D820F801ED54FA4F8081B8265E
:103A7000B0822AC08F5FBB0C863079F60F5F1F4F74
:103A80000E30110509F0C1CF8FEF66968FAF6697A4
:103A900067968FAF679768961FAE68970E94532509
:103AA0008160782F6A969FAF8EAF6A9766964FAD0A
:103AB000669767965FAD679768966FAD68976A96E9
:103AC0008FAD6A970E94D8208091A705882309F4BA
:103AD00099C08091A605E091A105E695E81BE093C9
:103AE0009D05823059F4F0E0E353F74FE4910E2F37
:103AF00010E0E4ECAE2EE0E2BE2E58C0863059F461
:103B0000F0E0E653F74FE4910E2F10E074EBA72E90
:103B100070E2B72E4BC0893061F4E695F0E0E953CE
:103B2000F74FE4910E2F10E06FE5A62E6FE1B62E51
:103B30003DC08F3061F4E695F0E0EC53F74FE4912F
:103B40000E2F10E056E4A52E50E2B52E2FC0853181
:103B500059F4F0E0EF53F74FE4910E2F10E046EFE9
:103B6000A42E4FE1B42E22C0883199F0833241F463
:103B7000F601059114913FE4A32E32E2B32E16C054
:103B8000843271F404EF11E029E8A22E2FE1B22E65
:103B90000DC008EE13E093ECA92E9FE1B92E06C0EC
:103BA00000ED17E08EE5A82E8FE1B82E80919E05DE
:103BB000882389F010929E050E9453259801209534
:103BC0003095820F931F90939C0580939B051092D4
:103BD000A00510929F0580919B0590919C050E94E5
:103BE00029258017910770F0E0919B05F0919C05C5
:103BF0000E0F1F1F10939C0500939B058BE995E00A
:103C0000F50109958091AF059091B0050E94292595
:103C10009C019091AE05992321F02431310508F4DF
:103C200078C08091AA051091AB0581110BC01111CC
:103C300041C12091AC0521113DC12091AD0521115B
:103C400039C167C09F3F19F09F5F9093AE0518166A
:103C500024F40E9478248093AA058091AA0587FF06
:103C600005C00E94782481958093AA05111624F43A
:103C70000E9478248093AB058091AB0587FF05C037
:103C80000E94782481958093AB053091AA05332357
:103C9000E1F02091AB052223C1F045EB3403C001D4
:103CA0001124992319F09093AA0503C081E0809311
:103CB000AA0535EB2303C0011124992319F0909331
:103CC000AB0503C081E08093AB058091AC0518166D
:103CD00024F40E9456248093AC058091AC0587FFA4
:103CE00005C00E94562481958093AC058091AD0556
:103CF000181624F40E9456248093AD058091AD05DA
:103D000087FF05C00E94562481958093AD050E94CF
:103D10005F250E94DF219091B105891721F00E9453
:103D2000DF218093B10580916305843009F0F7CDE0
:103D30008093E9008091E80082FFF1CD8091E80056
:103D400085FF21C00E94331A81111BC000E410E0DE
:103D5000CE0101965C0108C08091F100F5018193CC
:103D60005F010150110969F08091E80085FDF4CFF1
:103D70008091E8008B778093E8000E94331A8823B3
:103D800099F391E001C090E08091E8008B778093F7
:103D9000E800992309F4C3CD1981111115C0809150
:103DA000C705882361F11092C70581E08093C6059D
:103DB00022961FAE229723961FAE23978EEF24964E
:103DC0008FAF249763E070C01130C9F422961FAE04
:103DD000229723961FAF23978CE0E4E2F1E0D7010E
:103DE00001900D928A95E1F78EEF60968FAF609704
:103DF0006FE0CE018F5B9F4F0E94B92390CD8091E1
:103E0000C6058823A1F1123019F0133091F047C094
:103E10006091C1057091C2058091C3059091C40560
:103E20000E94802622961FAE229723961FAF2397CB
:103E300015C08A81813039F040F0823081F581E00F
:103E40008093C50502C01092C50522961FAE229729
:103E500083E023968FAF23978091C50524968FAF7B
:103E600024978EEF25968FAF259764E01DC08FEFC6
:103E700017C080E189BD82E189BD09B400FEFDCF94
:103E80008091D8008F7D8093D8008091E00082607F
:103E90008093E0008091E00081FDFCCF40CD81E087
:103EA00022968FAF229761E0CE018F5B9F4F0E94D9
:103EB000B92335CD9F3F09F0C7CED8CE0895EF92F4
:103EC000FF921F93CF93DF93EC018BECE82E85E0FC
:103ED000F82E10E08C8197014091A4056091A30514
:103EE000810F0E949A0E1F5E84E0E80EF11C1F3FB6
:103EF00089F70E94E5119A818C8190FF02C08F5F43
:103F000001C081508C83DF91CF911F91FF90EF9082
:103F10000895EF92FF920F931F93CF93DF938C013D
:103F2000CBECD5E0E12CF12CF8018481F7E0EF1621
:103F3000F1041CF4882339F002C0811104C09E01F1
:103F40004091A40502C09E0140E06091A3058091CC
:103F5000A2050E949A0E8FEFE81AF80A24969FE0B5
:103F6000E916F10409F70E94E511F801848190E057
:103F70000196817099278483DF91CF911F910F91D2
:103F8000FF90EF900895EF92FF920F931F93CF93BE
:103F9000DF93EC018C819D810196817099279D832F
:103FA0008C838BECE82E85E0F82E10E005E5212FC0
:103FB00026958C819D81820F911D81709701409182
:103FC000A4056091A305809F802D11240E949A0E64
:103FD0001F5F84E0E80EF11C1F3049F7DF91CF919D
:103FE0001F910F91FF90EF900C94E5110F931F9389
:103FF000CF93DF93CBECD5E0FE01118210821282C9
:104000001382349686E0E730F807B9F700E010E055
:104010008091C905082E000C990B0817190794F018
:1040200080912301082E000C990B8017910754F002
:104030009E014091A4056091A3058091A2050E9474
:104040009A0E04C0198218821A821B820F5F1F4FBA
:1040500024960F301105E1F60E94E51180912201AE
:104060009091C905980F9093C90520912301280FBD
:1040700020932301121614F49E301CF08195809336
:104080002201DF91CF911F910F910895BF92CF929E
:10409000DF92EF92FF920F931F93CF93DF93FC0178
:1040A000828180FF03C0DD24DA9402C0DD24D39432
:1040B0000BEC15E0C0E0D0E02FE0B22EF801118249
:1040C00010821282138294E0E92EF12CC12C80918F
:1040D000C8058C0D80312CF06B2D0E94282D892F66
:1040E00002C087FD815F082E000C990BC817D90705
:1040F00091F48091A4058E9DA0018F9D500D1124F7
:10410000559547955595479598016091A3058091E0
:10411000A2050E949A0ECD0CF1E0EF1AF108B9F653
:1041200021960C5F1F4FCF30D10541F60E94E5115B
:104130008091C80591E0D91206C0811102C08EE0BD
:1041400007C0815005C090E00196BE010E944A2D33
:104150008093C805DF91CF911F910F91FF90EF9051
:10416000DF90CF90BF900895CF93DF93EC01E1EA09
:10417000F5E0438162818C810E942F0F8C818F5FDB
:104180008C83DF91CF910895CF93DF93EC01EC8185
:10419000F0E0EA52F74F4491E1EAF5E06281818173
:1041A0000E942F0F8C818F5F8C83DF91CF910895B8
:1041B0000F931F93CF93DF93CDB7DEB767970FB6FB
:1041C000F894DEBF0FBECDBF4B8B5C8B6D8B7E8BAF
:1041D0008F8B0E891F890115110531F05F3F31F476
:1041E00081E04F3F19F403C081E001C080E080FD11
:1041F00032C0242F30E0A1E0B0E0042E01C0AA0FAD
:104200000A94EAF7852F90E0662319F070918106F1
:1042100005C0FC01E35FF94F70817A237723A1F099
:1042200046E0489FF001499FF00D1124E20FF31F73
:10423000EE0FFF1FEB5AFE4F40815181FC01E35FFF
:10424000F94F9081A92B06C0FC01E35FF94FA095BF
:104250008081A823A08386E0FE013D96DF01982F90
:104260001D929A95E9F74D875E876F87198B088BAA
:10427000DE01179601900D928A95E1F7CE0107961F
:104280000E94232981113EC086E0FE013796DE019F
:10429000119601900D928A95E1F7FF81E8856A8574
:1042A0007B856115710531F0EF3F31F481E0FF3F0F
:1042B00019F403C081E001C080E080FD23C020919B
:1042C000880630E0C9010196877099274091B906A8
:1042D00050E08417950779F1F983EA837D836C8335
:1042E00096E0929FD001939FB00D1124A757B94F2C
:1042F000FE01319601900D929A95E1F78093880620
:104300000E94B12816E08091B9069091880689171D
:10431000F9F0189FC00111248757994F0E94232953
:104320008823B1F08091B90690E0019687709927B3
:104330008093B906E8CF0E94E42A10928806109272
:10434000B906E2E8F6E086E0DF011D928A95E9F71A
:1043500067960FB6F894DEBF0FBECDBFDF91CF9149
:104360001F910F91089520910B0630910C0628178C
:10437000390771F090930C0680930B06E0918A0543
:10438000F0918B05309721F00084F185E02D0994A0
:1043900008952091090630910A062817390771F00F
:1043A00090930A0680930906E0918A05F0918B05A7
:1043B000309721F00680F781E02D09940895E0916F
:1043C0008A05F0918B05309721F00190F081E02D66
:1043D000099480E008958F929F92AF92BF92EF92DE
:1043E000FF920F931F93CF93DF93EC017B01042F78
:1043F0008090C1059090C205A090C305B090C405FF
:104400000E94E42A0E94212886E0080280011124EB
:10441000CE15DF0531F0CE010E940A05C00FD11F75
:10442000F7CF0E94E42A8092C1059092C205A09223
:10443000C305B092C405DF91CF911F910F91FF90FA
:10444000EF90BF90AF909F908F9008959091A105AD
:1044500090FF04C09695981740F003C0811105C0E5
:1044600090E0961710F40C94810E0C946D0E882336
:1044700011F0FA0101C0FB0109949091A10590FF90
:104480000DC0EBECF5E081836083428313823496A8
:1044900096E0E730F907B9F70C94E51108950F930A
:1044A0001F93CF93DF9300D000D0CDB7DEB78C0140
:1044B0008091CA0581110AC09E012F5F3F4F4FEFC7
:1044C0006FEF0E949A0E8A818093CA05F801848159
:1044D000813051F028F0823061F44091CA050AC061
:1044E0008091CA0540E007C06091CA0540E080E0C5
:1044F00003C040E080E060E00E943D22F80184813A
:1045000090E0019663E070E00E944A2D84830F9052
:104510000F900F900F90DF91CF911F910F91089501
:104520005F926F927F928F929F92AF92BF92CF9243
:10453000DF92EF92FF920F931F93CF93DF9300D000
:1045400000D0CDB7DEB7182F762E042F622E9091B3
:10455000A10590FF6DC0E92FE695AE2FB0E0A05DFC
:10456000BE4F8C918093A6059E7F923061F49E0190
:104570002F5F3F4F812F0E949A0E4B8169818A8164
:104580000E943D2243C0823019F40091A4053EC030
:10459000863019F41091A20539C08930D9F38931D8
:1045A000A9F5E9518E2F8170582EE695F0E0EF5273
:1045B000F74FA590B4908BECC82E85E0D82EE12C57
:1045C000F12CBB249FE0892E912CAE9CC001AF9CA6
:1045D000900DBE9C900D1124B4010E94362D812FA8
:1045E000511002C0860F01C0861B9601402F672D17
:1045F0000E949A0E8FEFE81AF80A84E0C80ED11CC8
:104600008FE0E816F10409F70E94E5111093A20566
:104610007092A3050093A405662051F06091A10556
:104620007091A2058091A3059091A4050E94F30DBD
:104630000F900F900F900F90DF91CF911F910F91DE
:10464000FF90EF90DF90CF90BF90AF909F908F90B2
:104650007F906F905F9008950F931F93CF93DF9398
:10466000C62FD42F122FFC0182818823C9F06093BA
:1046700031050E945325909308068093070680E237
:104680008C0F883008F057C0C77081E001C0880FD8
:10469000CA95EAF7DF91CF911F910F910C94192BD6
:1046A00080913105681330C080910706909108060B
:1046B0000E942925883C910538F500E20D0FCD17A1
:1046C000B9F080E28C0F883040F4C77081E001C0FF
:1046D000880FCA95EAF70E940E2B083028F581E072
:1046E0009D2F977001C0880F9A95EAF70E94192BA9
:1046F000812F0E94232B0830F0F4D77081E001C095
:10470000880FDA95EAF70AC080E28C0F883098F4B7
:10471000C77081E001C0880FCA95EAF7DF91CF9199
:104720001F910F910C940E2B812FDF91CF911F9130
:104730000F910C94232BDF91CF911F910F9108952E
:104740006091A105669570E04BE050E087E191E053
:104750000E94912E892B19F481E08093A7050E9475
:10476000532590939C0580939B0508958091400567
:10477000089520916305243099F423E02093E90003
:1047800070E040E050E00E94661A882321F0109209
:10479000C6051092C7058091E8008E778093E800E7
:1047A0000895803F39F48091AB0587FF6CC010926B
:1047B000AB0569C0813F29F48091AB051816BCF3A5
:1047C00062C09091AA05823F29F497FF5CC01092C5
:1047D000AA0559C0833F19F41916CCF354C0893F78
:1047E00041F48091AC0518160CF04DC01092AC0548
:1047F0004AC08A3F29F48091AC0587FF44C0F6CFB8
:104800008B3F39F48091AD0587FF3DC01092AD0517
:104810003AC08C3F29F48091AD051816BCF333C023
:10482000843F21F48091A9058E7F17C0853F21F434
:104830008091A9058D7F11C0863F21F48091A90543
:104840008B7F0BC0873F21F48091A905877F05C02E
:10485000883F31F48091A9058F7E8093A90513C00C
:104860008D3F21F480917F068E7F0BC08E3F21F417
:1048700080917F068D7F05C08F3F29F480917F0650
:104880008B7F80937F068091AA0581110EC0809155
:10489000AB0581110AC08091AC05811106C08091E1
:1048A000AD05811102C01092AE05089580917F067A
:1048B00080FD16C081FD16C082FD18C08091AE0536
:1048C000882391F0883290F428E0829FC00111245F
:1048D00068E270E00E944A2D862F672B29F007C0FE
:1048E00082E0089584E0089581E0089588E00895C5
:1048F00080917F0680FD17C081FD17C082FD19C021
:104900008091AE05882399F0823398F429E1829F43
:10491000C001112462E370E00E944A2D862F672BAC
:1049200049F481E0089586E008958CE0089585E0DB
:10493000089589E10895803F21F40E9478248195AB
:1049400004C0813F29F40E9478248093AB05089528
:10495000823F21F40E947824819504C0833F29F48A
:104960000E9478248093AA050895893F19F40E9433
:10497000562405C08A3F31F40E94562481958093C5
:10498000AC0508958B3F21F40E945624819504C004
:104990008C3F29F40E9456248093AD050895843FEE
:1049A00021F48091A905816017C0853F21F4809191
:1049B000A905826011C0863F21F48091A905846019
:1049C0000BC0873F21F48091A905886005C0883F0E
:1049D00031F48091A90580618093A90508958D3FE8
:1049E00021F480917F0681600BC08E3F21F480917D
:1049F0007F06826005C08F3F29F480917F06846026
:104A000080937F06089578941F920F920FB60F92AD
:104A100011248F939F93AF93BF9380917B069091C6
:104A20007C06A0917D06B0917E060196A11DB11D68
:104A300080937B0690937C06A0937D06B0937E06C0
:104A4000BF91AF919F918F910F900FBE0F901F90CC
:104A50001895CF92DF92EF92FF920F931F932FB78B
:104A6000F89440917B0650917C0660917D06709190
:104A70007E062FBF6A017B01EE24FF248C0120E01B
:104A800030E0C016D106E206F30610F44150510999
:104A90009A01281B390BC9011F910F91FF90EF90CC
:104AA000DF90CF9008952FB7F89480917B06909176
:104AB0007C06A0917D06B0917E062FBF0895E091FF
:104AC0008A05F0918B05309749F082E08093A80524
:104AD0000480F581E02D88EA95E009950E94532530
:104AE0009093B0058093AF0508951F920F920FB673
:104AF0000F9211248F939F93AF93BF9380918C0556
:104B0000811113C080917B0690917C06A0917D0657
:104B1000B0917E064196A11DB11D80937B069093B6
:104B20007C06A0937D06B0937E06BF91AF919F91C6
:104B30008F910F900FBE0F901F90189520910A0132
:104B40002223C9F02091870527FF15C0262F26951F
:104B5000269526952E31C8F4FC01E20FF11D6770F1
:104B600081E090E001C0880F6A95EAF78095928114
:104B7000892382830895FC0106962281621301C075
:104B800012823196E817F907C1F7089520910A01BA
:104B90002223C1F02091870527FF14C0262F2695D8
:104BA000269526952E3130F5FC01E20FF11D677038
:104BB00081E090E001C0880F6A95EAF79281892B25
:104BC00082830895FC0132962FEF30E04191641703
:104BD00089F02F3F19F4411101C0232F3F5F363078
:104BE000A9F72F3F39F0FC01E20FF11D27FDFA95DF
:104BF000628308950895CF9384E090E00E94E02CB2
:104C0000C82F81E290E00E94E02C2C2F30E0A90117
:104C1000582BCA01CF9108956FEE7EEF80E090E0AF
:104C20000E94122D60E082E090E00E94F42C60E08F
:104C300083E090E00E94F42C1092770610927806A0
:104C40001092790610927A0660E084E090E00E946B
:104C5000F42C60E081E290E00E94F42C60E085E0BA
:104C600090E00E94F42C60E086E090E00E94F42C3A
:104C70006FEF87E090E00E94F42C40E050E0BA0132
:104C800088E090E00E94062D60E08DE090E00E94B8
:104C9000F42C40E050E0BA0188E190E00E94062D3B
:104CA00060E087E190E00E94F42C40E050E0BA011F
:104CB0008CE190E00E94062D60E080E290E00E948E
:104CC000F42C1092750510927605109277051092CB
:104CD000780584E080618093750540917505509159
:104CE000760560917705709178058FE090E00E94DD
:104CF000062D40E050E0BA0183E190E00C94062DCF
:104D0000CF92DF92EF92FF926C01EE24FF24C11448
:104D1000D104E104F10421F0C701B60120E101C092
:104D200020E0C72ED82EE92EFF24C114D104E104BF
:104D3000F10419F0285FC701B6016B017C0154E052
:104D4000F694E794D794C7945A95D1F7C114D10437
:104D5000E104F10419F02C5FC701B6016B017C017D
:104D600042E0F694E794D794C7944A95D1F7C114DA
:104D7000D104E104F10419F02E5FC701B601DC0192
:104D8000CB01B695A79597958795892B8A2B8B2B69
:104D900009F02F5F822FFF90EF90DF90CF90089562
:104DA000809176068111109276060895909175068D
:104DB00080917406892B20917306982F922B9093E3
:104DC0001B06809176068823D9F0892B80931B06D9
:104DD00080910A01882331F08091870587FF02C006
:104DE0008EE101C086E0EDE1F6E090E0815028F030
:104DF00021912223D9F39F5FF9CF91110E94D026F0
:104E0000E0918A05F0918B053097A9F080910A0115
:104E1000882359F08091870587FF07C080911B0682
:104E200080931C0685E080931B060280F381E02DB1
:104E30008BE196E009940895BF92CF92DF92EF92B2
:104E4000FF920F931F93CF93DF938C01C090C10506
:104E5000D090C205E090C305F090C405809177061C
:104E600090917806A0917906B0917A06C82AD92A3D
:104E7000EA2AFB2ACFE1D0E0D701C6010C2E04C0FC
:104E8000B695A795979587950A94D2F780FD04C0AB
:104E9000219790F7B12C07C0BC2EB8018C2F0E942F
:104EA000500F0197A9F38B2DDF91CF911F910F9197
:104EB000FF90EF90DF90CF90BF900895CF93DF9356
:104EC000EC010E941C27BE010E94500FDF91CF9180
:104ED0000895292F220F920F990F890F682F669539
:104EE00066956695982F977085E0689FB0011124AC
:104EF00040E050E080E0FB01E40FF51FE55CF94F76
:104F0000208130E0092E02C0369527950A94E2F7F9
:104F100021703327042E01C0220F0A94EAF7822B56
:104F20004F5F5F4F4530510531F70895292F220F0C
:104F3000920F990F890FE82FE695E695E695877011
:104F400051E001C0550F8A95EAF785E0E89FF0012E
:104F50001124E55CF94F20E030E070E04081CB01A6
:104F6000022E02C0969587950A94E2F7817081958A
:104F700084278523842781932F5F3F4F2530310578
:104F800069F708950F931F9341E050E060E070E0EF
:104F900004C0440F551F661F771F8A95D2F74095AE
:104FA0005095609570958091C1059091C205A09132
:104FB000C305B091C4058A019B01082319232A2344
:104FC0003B23C901B8011F910F910C946A282091CD
:104FD00072068095822380937206982F977079F4D9
:104FE00030E0482F082E000C550B2417350739F0F8
:104FF0008595859585950E94C22710927206089521
:105000000F931F9341E050E060E070E004C0440F54
:10501000551F661F771F8A95D2F78091C105909121
:10502000C205A091C305B091C4058A019B01082B5C
:10503000192B2A2B3B2BC901B8011F910F910C94FE
:105040006A2860E070E0CB010C946A280E945E2719
:10505000292F2F70E92FE295EF704E2F50E0FA01C3
:105060003297EE30F105B8F4E257FF4F0C945E2D05
:10507000803F99F018F4883E70F40FC0843F59F4D3
:105080000CC0883E50F0813F31F407C0822F8695D6
:1050900086958695089580E0089581E008951092A0
:1050A0007406109273060E94D626E8EAF5E086E0C0
:1050B000DF011D928A95E9F71092AE0510927F06E6
:1050C0000E945F2580E090E00E94C92180E090E08E
:1050D0000C94B321CF92DF92EF92FF92CF93DF93A4
:1050E00000D000D0CDB7DEB70E947E126B017C01EC
:1050F0008091C505882319F08091C60502C080E023
:1051000090E080FF0FC0198282E08A83C701B60158
:105110000E9480268B838EEF8C8364E0CE01019603
:105120000E94B923C092C105D092C205E092C30586
:10513000F092C4050E944F280F900F900F900F908F
:10514000DF91CF91FF90EF90DF90CF900895609323
:105150007706709378068093790690937A060C947C
:105160004F288091B90690918806891719F08F5FB2
:105170008770FBCF0895CF938091870682958F70BB
:1051800009F05FC080918406882309F45AC0809199
:10519000B906B091880670918206A091830640916D
:1051A00085065091860691E07F3F09F090E0692FD7
:1051B000C6E08B1709F445C04115510521F0AF3FFA
:1051C00021F020E003C021E001C0262F90E020FD67
:1051D00035C0C89FF001C99FF00D1124E757F94F62
:1051E00021812A132BC02081271328C0228121115D
:1051F00025C0238134812417350710F4215031094B
:10520000241B350B283C3105C8F4209187062F70EC
:1052100020612093870626E0289FF001299FF00D4A
:105220001124E257F94F80818F708061808382E87A
:1052300096E00E940A05CF910C94B12801968770E0
:10524000B8CFCF910895AF92BF92CF92DF92EF92F5
:10525000FF920F931F93CF93DF93CDB7DEB7619784
:105260000FB6F894DEBF0FBECDBF7C0185E0F7011D
:10527000DE011D9601900D928A95E1F7D7013C91D0
:1052800011962C91119712960C9150918206609173
:1052900083068091850690918606009731F06F3FD6
:1052A00031F441E05F3F19F403C041E001C040E048
:1052B000B42FB170BB2E40FD28C1F701C380D4804C
:1052C000A0908406AA2009F4E3C040918706C8167E
:1052D000D90628F0D601A81BB90BCD0104C08095D2
:1052E00090958C0D9D1D11E0883C910548F010E0D3
:1052F000407F09F093C082E896E00E940A05FDC055
:10530000842F807F09F051C0621312C0531310C064
:10531000102F01110DC04F7040614093870682E845
:1053200096E00E940A0580918706F70185833AC1BD
:10533000CD2831F02F3F31F481E03F3F19F403C015
:1053400081E001C080E080FD03C081E0802702C0D1
:1053500080E090E0182F117080FF1CC08091B9068A
:105360004091880656E0841709F4F9C090E0589FF0
:10537000F001599FF00D1124E757F94F6181261371
:1053800006C06081361303C06281061303C0019614
:105390008770E9CF102F002309F404C1809187069C
:1053A00081608093870610E0FDC062130CC0531328
:1053B0000AC0011108C080918706F7018583C701E3
:1053C0000E940A0580C03D872E878D859E850E949C
:1053D0002628882369F1002359F120918706822F1E
:1053E00082958F7090E0029774F080918206909180
:1053F000830698878F831986DB86CA862C87CE0121
:1054000007960E940A0586E0F701A2E8B6E001903F
:105410000D928A95E1F70E94BB280DC0621769F0D2
:105420003D872E878D859E850E942628811119C073
:10543000C7010E940A0511E0B5C05313F1CF011155
:10544000EFCF80918706F7018583C7010E940A0587
:1054500086E0E2E8F6E0DF011D928A95E9F71A2D71
:10546000A1C0002329F320918706822F82958F7097
:1054700090E0029744F280918206909183069A838D
:1054800089831B82DD82CC822E83CE010196B9CF27
:10549000C816D90638F0C81AD90AB8ECCB16D10408
:1054A00050F007C0809590958C0D9D1D883C91050E
:1054B00010F010E022C0102F002309F4B9CF6213BE
:1054C0000BC0531309C086E0F701A2E8B6E00190D3
:1054D0000D928A95E1F766C03D872E878D859E8562
:1054E0000E94262881118FCF80918706816080934A
:1054F0008706C7010E940A0555C0E2E8F6E086E08B
:10550000DF011D928A95E9F74DC0002309F490CF81
:105510003D872E878D859E850E942628182F8823FB
:1055200009F486CF86E0F701A2E8B6E001900D927B
:105530008A95E1F780918206909183060E945E270A
:1055400092959F70963041F48091810691E0892771
:1055500080938106909380060E94BB2823C03D87DC
:105560002E878D859E850E945E27292F22952F707C
:10557000223028F49F7039F0811105C00BC024300F
:1055800028F49F7049F4805E883020F0C7010E94A3
:105590000A05B12E1B2D06C0D70115969C91907F50
:1055A00091F7F8CF812F61960FB6F894DEBF0FBE4A
:1055B000CDBFDF91CF911F910F91FF90EF90DF90C2
:1055C000CF90BF90AF9008951092750680910A0118
:1055D000882331F08091870587FF02C08EE101C0EA
:1055E00086E0EDE1F6E0DF011D928A95E9F70C9483
:1055F0004F28882341F080959091740689238093E9
:1056000074060C94D6260895882339F09091740678
:10561000892B809374060C94D6260895882341F034
:105620008095909175068923809375060C94D626F3
:105630000895882339F090917506892B809375061B
:105640000C94D6260895CF93C82F0E949D2BC93362
:1056500049F42FEF87EE93E0215080409040E1F72E
:1056600000C000008C2FCF910C94362B882309F4B6
:1056700063C0823869F40E94DF2181FF5DC069E365
:105680008BE196E00E94C6250E94D62669E30EC0F3
:10569000833891F40E94DF2180FF4EC063E58BE1E7
:1056A00096E00E94C6250E94D62663E58BE196E02F
:1056B0000E949E250C94D626843869F40E94DF212E
:1056C00082FF3AC067E48BE196E00E94C6250E9403
:1056D000D62667E4EBCF9CEF980F913A10F4682F31
:1056E000E5CF90E2980F983088F4877021E030E0A1
:1056F000A90102C0440F551F8A95E2F7CA0180959F
:1057000090917506892380937506D4CF9BE5980FF9
:10571000933020F480E090E00C94C92198E5980F34
:10572000973120F480E090E00C94B321803F20F08A
:105730000E94D1230C945F250895882309F489C021
:105740008238B1F40E94DF2181FD83C069E38BE1DF
:1057500096E00E94C6250E94D6262FEF41EE54E027
:10576000215040405040E1F700C0000069E317C0FD
:105770008338D9F40E94DF2180FD6BC063E58BE1A3
:1057800096E00E94C6250E94D6268FEF91EE24E077
:10579000815090402040E1F700C0000063E58BE1BC
:1057A00096E00E949E250C94D6268438B1F40E947F
:1057B000DF2182FD4EC067E48BE196E00E94C625A2
:1057C0000E94D6264FEF51EE84E041505040804079
:1057D000E1F700C0000067E4E2CF9CEF980F913A38
:1057E00030F4682F8BE196E00E94C625DCCF90E272
:1057F000980F983080F4877021E030E0A90102C052
:10580000440F551F8A95E2F7CA0190917506892BBE
:1058100080937506C8CFEBE5E80FE33038F4F0E08D
:10582000E350FE4F808190E00C94C921E8E5E80F39
:10583000E73148F4F0E0EE0FFF1FE050FE4F8081AB
:1058400091810C94B321803F20F00E949B240C9402
:105850005F2508951092B9008CE08093B8000895F8
:10586000EF92FF920F931F93CF93DF93182FEB01CB
:105870001092BC0084EA8093BC000E9453257C01F6
:105880008091BC0087FD0EC0CF3F8FEFD807C1F3DA
:105890000E9453258E199F098C179D0788F38EEF60
:1058A0009FEF2EC08091B900887F883041F08091B1
:1058B000B900887F803119F08FEF9FEF21C01093DE
:1058C000BB0084E88093BC000E9453258C0180912A
:1058D000BC0087FD0CC0CF3F8FEFD807C1F30E94FB
:1058E0005325801B910B8C179D0788F3D8CF80918F
:1058F000B900887F883111F08034F1F680E090E0C3
:10590000DF91CF911F910F91FF90EF9008950F932A
:105910001F93CF93DF93EB018093BB0084E88093C8
:10592000BC000E9453258C018091BC0087FD0EC0F5
:10593000CF3F8FEFD807C1F30E945325801B910BF7
:105940008C179D0788F38EEF9FEF0CC02091B90054
:10595000287F81E090E0283211F480E090E091957A
:1059600081959109DF91CF911F910F9108950F9328
:105970001F93CF93DF93EC0184E88093BC000E94D7
:1059800053258C018091BC0087FD0EC0CF3F8FEF67
:10599000D807C1F30E945325801B910B8C179D07DC
:1059A00088F38EEF9FEF03C08091BB0090E0DF9102
:1059B000CF911F910F91089584E98093BC000895C1
:1059C000F999FECF92BD81BDF89A992780B50895C7
:1059D000A6E1B0E044E050E00C941A2DA8E1B0E05C
:1059E00042E050E00C941A2D262FF999FECF92BD7B
:1059F00081BDF89A019700B4021639F01FBA20BD94
:105A00000FB6F894FA9AF99A0FBE08950396272FC5
:105A10000E94F52C0E94F42C252F0E94F52C242F97
:105A20000C94F52C0196272F0E94F52C0C94F42C45
:105A3000DC01CB01FC01F999FECF06C0F2BDE1BD4E
:105A4000F89A319600B40D9241505040B8F708953D
:105A500087FB082E062687FD819567FD61950E94CC
:105A6000642D0EF4919507FC81950895AA1BBB1B2C
:105A700051E107C0AA1FBB1FA617B70710F0A61B4E
:105A8000B70B881F991F5A95A9F780959095BC016F
:105A9000CD01089597FB072E16F4009407D077FDEB
:105AA00009D00E94362D07FC05D03EF490958195D3
:105AB0009F4F0895709561957F4F0895EE0FFF1FDA
:105AC0000590F491E02D0994991B79E004C0991F89
:105AD000961708F0961B881F7A95C9F78095089548
